{
  "contractName": "Contacts",
  "abi": [
    {
      "inputs": [],
      "payable": false,
      "stateMutability": "nonpayable",
      "type": "constructor"
    },
    {
      "constant": true,
      "inputs": [
        {
          "internalType": "uint256",
          "name": "",
          "type": "uint256"
        }
      ],
      "name": "contacts",
      "outputs": [
        {
          "internalType": "uint256",
          "name": "id",
          "type": "uint256"
        },
        {
          "internalType": "string",
          "name": "name",
          "type": "string"
        },
        {
          "internalType": "string",
          "name": "phone",
          "type": "string"
        }
      ],
      "payable": false,
      "stateMutability": "view",
      "type": "function"
    },
    {
      "constant": true,
      "inputs": [],
      "name": "count",
      "outputs": [
        {
          "internalType": "uint256",
          "name": "",
          "type": "uint256"
        }
      ],
      "payable": false,
      "stateMutability": "view",
      "type": "function"
    },
    {
      "constant": false,
      "inputs": [
        {
          "internalType": "string",
          "name": "_name",
          "type": "string"
        },
        {
          "internalType": "string",
          "name": "_phone",
          "type": "string"
        }
      ],
      "name": "createContact",
      "outputs": [],
      "payable": false,
      "stateMutability": "nonpayable",
      "type": "function"
    }
  ],
  "bytecode": "0x60806040526000805534801561001457600080fd5b50610597806100246000396000f3fe608060405234801561001057600080fd5b50600436106100415760003560e01c806306661abd146100465780633dce492014610064578063e0f478cb146101b6575b600080fd5b61004e6102d0565b6040518082815260200191505060405180910390f35b6101b46004803603604081101561007a57600080fd5b810190808035906020019064010000000081111561009757600080fd5b8201836020820111156100a957600080fd5b803590602001918460018302840111640100000000831117156100cb57600080fd5b91908080601f016020809104026020016040519081016040528093929190818152602001838380828437600081840152601f19601f8201169050808301925050505050505091929192908035906020019064010000000081111561012e57600080fd5b82018360208201111561014057600080fd5b8035906020019184600183028401116401000000008311171561016257600080fd5b91908080601f016020809104026020016040519081016040528093929190818152602001838380828437600081840152601f19601f8201169050808301925050505050505091929192905050506102d6565b005b6101e2600480360360208110156101cc57600080fd5b8101908080359060200190929190505050610363565b604051808481526020018060200180602001838103835285818151815260200191508051906020019080838360005b8381101561022c578082015181840152602081019050610211565b50505050905090810190601f1680156102595780820380516001836020036101000a031916815260200191505b50838103825284818151815260200191508051906020019080838360005b83811015610292578082015181840152602081019050610277565b50505050905090810190601f1680156102bf5780820380516001836020036101000a031916815260200191505b509550505050505060405180910390f35b60005481565b60008081548092919060010191905055506040518060600160405280600054815260200183815260200182815250600160008054815260200190815260200160002060008201518160000155602082015181600101908051906020019061033e9291906104bd565b50604082015181600201908051906020019061035b9291906104bd565b509050505050565b6001602052806000526040600020600091509050806000015490806001018054600181600116156101000203166002900480601f0160208091040260200160405190810160405280929190818152602001828054600181600116156101000203166002900480156104155780601f106103ea57610100808354040283529160200191610415565b820191906000526020600020905b8154815290600101906020018083116103f857829003601f168201915b505050505090806002018054600181600116156101000203166002900480601f0160208091040260200160405190810160405280929190818152602001828054600181600116156101000203166002900480156104b35780601f10610488576101008083540402835291602001916104b3565b820191906000526020600020905b81548152906001019060200180831161049657829003601f168201915b5050505050905083565b828054600181600116156101000203166002900490600052602060002090601f016020900481019282601f106104fe57805160ff191683800117855561052c565b8280016001018555821561052c579182015b8281111561052b578251825591602001919060010190610510565b5b509050610539919061053d565b5090565b61055f91905b8082111561055b576000816000905550600101610543565b5090565b9056fea265627a7a7231582004890a3b980e84647542fbb707a89bba5f152cb17af05941e875a335625a25bf64736f6c63430005100032",
  "source": "pragma solidity >=0.4.22 <0.9.0;\n\ncontract Contacts {\n  uint public count = 0;\n\tstruct Contact {\n\t\tuint id;\n\t\tstring name;\n\t\tstring phone;\n\t}\n\tconstructor() public {\n\t\t\n\t}\n\tmapping(uint => Contact) public contacts;\n\n\tfunction createContact(string memory _name , string memory _phone ) public {\n\t\tcount++;\n\t\tcontacts[count] = Contact(count, _name, _phone );\n\t}\n}\n",
  "sourcePath": "/root/bc/contracts/contracts/contacts.sol",
  "compiler": {
    "name": "solc",
    "version": "0.5.16+commit.9c3226ce.Emscripten.clang"
  },
  "schemaVersion": "3.4.12",
  "updatedAt": "2023-02-24T12:54:13.728Z",
  "networkType": "ethereum",
  "devdoc": {
    "methods": {}
  },
  "userdoc": {
    "methods": {}
  }
}